{
  "_format": "hh-sol-artifact-1",
  "contractName": "MigratableMockV2",
  "sourceName": "contracts/mocks/SingleInheritanceInitializableMocks.sol",
  "abi": [
    {
      "inputs": [
        {
          "internalType": "uint256",
          "name": "value",
          "type": "uint256"
        }
      ],
      "name": "initialize",
      "outputs": [],
      "stateMutability": "payable",
      "type": "function"
    },
    {
      "inputs": [
        {
          "internalType": "uint256",
          "name": "value",
          "type": "uint256"
        },
        {
          "internalType": "uint256",
          "name": "anotherValue",
          "type": "uint256"
        }
      ],
      "name": "migrate",
      "outputs": [],
      "stateMutability": "payable",
      "type": "function"
    },
    {
      "inputs": [],
      "name": "x",
      "outputs": [
        {
          "internalType": "uint256",
          "name": "",
          "type": "uint256"
        }
      ],
      "stateMutability": "view",
      "type": "function"
    },
    {
      "inputs": [],
      "name": "y",
      "outputs": [
        {
          "internalType": "uint256",
          "name": "",
          "type": "uint256"
        }
      ],
      "stateMutability": "view",
      "type": "function"
    }
  ],
  "bytecode": "0x608060405234801561001057600080fd5b506102e1806100206000396000f3fe60806040526004361061003f5760003560e01c80630c55699c146100445780633e54bacb1461006f578063a56dfe4a146100a7578063fe4b84df146100d2575b600080fd5b34801561005057600080fd5b50610059610100565b6040518082815260200191505060405180910390f35b6100a56004803603604081101561008557600080fd5b810190808035906020019092919080359060200190929190505050610106565b005b3480156100b357600080fd5b506100bc61014d565b6040518082815260200191505060405180910390f35b6100fe600480360360208110156100e857600080fd5b8101908080359060200190929190505050610153565b005b60015481565b600260009054906101000a900460ff161561012057600080fd5b81600181905550806003819055506001600260006101000a81548160ff0219169083151502179055505050565b60035481565b600060019054906101000a900460ff16806101725750610171610259565b5b80610188575060008054906101000a900460ff16155b6101dd576040517f08c379a000000000000000000000000000000000000000000000000000000000815260040180806020018281038252602e81526020018061027e602e913960400191505060405180910390fd5b60008060019054906101000a900460ff16159050801561022d576001600060016101000a81548160ff02191690831515021790555060016000806101000a81548160ff0219169083151502179055505b8160018190555080156102555760008060016101000a81548160ff0219169083151502179055505b5050565b60006102643061026a565b15905090565b600080823b90506000811191505091905056fe496e697469616c697a61626c653a20636f6e747261637420697320616c726561647920696e697469616c697a6564a264697066735822122042805f0a0ef2559a226cbfe1bf312a868a4cb0be6391bbd823ccfe6fe4a9a19164736f6c63430007040033",
  "linkReferences": {},
  "deployedLinkReferences": {}
}