{
  "_format": "hh-sol-artifact-1",
  "contractName": "MigratableMockV1",
  "sourceName": "contracts/mocks/SingleInheritanceInitializableMocks.sol",
  "abi": [
    {
      "inputs": [
        {
          "internalType": "uint256",
          "name": "value",
          "type": "uint256"
        }
      ],
      "name": "initialize",
      "outputs": [],
      "stateMutability": "payable",
      "type": "function"
    },
    {
      "inputs": [],
      "name": "x",
      "outputs": [
        {
          "internalType": "uint256",
          "name": "",
          "type": "uint256"
        }
      ],
      "stateMutability": "view",
      "type": "function"
    }
  ],
  "bytecode": "0x608060405234801561001057600080fd5b5061021b806100206000396000f3fe6080604052600436106100295760003560e01c80630c55699c1461002e578063fe4b84df14610059575b600080fd5b34801561003a57600080fd5b50610043610087565b6040518082815260200191505060405180910390f35b6100856004803603602081101561006f57600080fd5b810190808035906020019092919050505061008d565b005b60015481565b600060019054906101000a900460ff16806100ac57506100ab610193565b5b806100c2575060008054906101000a900460ff16155b610117576040517f08c379a000000000000000000000000000000000000000000000000000000000815260040180806020018281038252602e8152602001806101b8602e913960400191505060405180910390fd5b60008060019054906101000a900460ff161590508015610167576001600060016101000a81548160ff02191690831515021790555060016000806101000a81548160ff0219169083151502179055505b81600181905550801561018f5760008060016101000a81548160ff0219169083151502179055505b5050565b600061019e306101a4565b15905090565b600080823b90506000811191505091905056fe496e697469616c697a61626c653a20636f6e747261637420697320616c726561647920696e697469616c697a6564a2646970667358221220bf3130315be60f8852f6205ea6b42ecc4f525975426b1d50427d12a9b78ded0a64736f6c63430007040033",
  "linkReferences": {},
  "deployedLinkReferences": {}
}