{
  "_format": "hh-sol-artifact-1",
  "contractName": "ClashingImplementation",
  "sourceName": "contracts/mocks/ClashingImplementation.sol",
  "abi": [
    {
      "inputs": [],
      "name": "admin",
      "outputs": [
        {
          "internalType": "address",
          "name": "",
          "type": "address"
        }
      ],
      "stateMutability": "pure",
      "type": "function"
    },
    {
      "inputs": [],
      "name": "delegatedFunction",
      "outputs": [
        {
          "internalType": "bool",
          "name": "",
          "type": "bool"
        }
      ],
      "stateMutability": "pure",
      "type": "function"
    }
  ],
  "bytecode": "0x608060405234801561001057600080fd5b5060d28061001f6000396000f3fe6080604052348015600f57600080fd5b506004361060325760003560e01c8063abf8e0e7146037578063f851a440146055575b600080fd5b603d6087565b60405180821515815260200191505060405180910390f35b605b6090565b604051808273ffffffffffffffffffffffffffffffffffffffff16815260200191505060405180910390f35b60006001905090565b6000631111114290509056fea2646970667358221220ebc1ab7250b5c87feb48369dcaf8ebabe6f43d4edfa2d6bcbf9ae3f8d53b426864736f6c63430007040033",
  "linkReferences": {},
  "deployedLinkReferences": {}
}