{
  "_format": "hh-sol-artifact-1",
  "contractName": "EnumerableMapMock",
  "sourceName": "contracts/mocks/EnumerableMapMock.sol",
  "abi": [
    {
      "anonymous": false,
      "inputs": [
        {
          "indexed": false,
          "internalType": "bool",
          "name": "result",
          "type": "bool"
        }
      ],
      "name": "OperationResult",
      "type": "event"
    },
    {
      "inputs": [
        {
          "internalType": "uint256",
          "name": "index",
          "type": "uint256"
        }
      ],
      "name": "at",
      "outputs": [
        {
          "internalType": "uint256",
          "name": "key",
          "type": "uint256"
        },
        {
          "internalType": "address",
          "name": "value",
          "type": "address"
        }
      ],
      "stateMutability": "view",
      "type": "function"
    },
    {
      "inputs": [
        {
          "internalType": "uint256",
          "name": "key",
          "type": "uint256"
        }
      ],
      "name": "contains",
      "outputs": [
        {
          "internalType": "bool",
          "name": "",
          "type": "bool"
        }
      ],
      "stateMutability": "view",
      "type": "function"
    },
    {
      "inputs": [
        {
          "internalType": "uint256",
          "name": "key",
          "type": "uint256"
        }
      ],
      "name": "get",
      "outputs": [
        {
          "internalType": "address",
          "name": "",
          "type": "address"
        }
      ],
      "stateMutability": "view",
      "type": "function"
    },
    {
      "inputs": [
        {
          "internalType": "uint256",
          "name": "key",
          "type": "uint256"
        },
        {
          "internalType": "string",
          "name": "errorMessage",
          "type": "string"
        }
      ],
      "name": "getWithMessage",
      "outputs": [
        {
          "internalType": "address",
          "name": "",
          "type": "address"
        }
      ],
      "stateMutability": "view",
      "type": "function"
    },
    {
      "inputs": [],
      "name": "length",
      "outputs": [
        {
          "internalType": "uint256",
          "name": "",
          "type": "uint256"
        }
      ],
      "stateMutability": "view",
      "type": "function"
    },
    {
      "inputs": [
        {
          "internalType": "uint256",
          "name": "key",
          "type": "uint256"
        }
      ],
      "name": "remove",
      "outputs": [],
      "stateMutability": "nonpayable",
      "type": "function"
    },
    {
      "inputs": [
        {
          "internalType": "uint256",
          "name": "key",
          "type": "uint256"
        },
        {
          "internalType": "address",
          "name": "value",
          "type": "address"
        }
      ],
      "name": "set",
      "outputs": [],
      "stateMutability": "nonpayable",
      "type": "function"
    },
    {
      "inputs": [
        {
          "internalType": "uint256",
          "name": "key",
          "type": "uint256"
        }
      ],
      "name": "tryGet",
      "outputs": [
        {
          "internalType": "bool",
          "name": "",
          "type": "bool"
        },
        {
          "internalType": "address",
          "name": "",
          "type": "address"
        }
      ],
      "stateMutability": "view",
      "type": "function"
    }
  ],
  "bytecode": "0x608060405234801561001057600080fd5b50610b1a806100206000396000f3fe608060405234801561001057600080fd5b50600436106100885760003560e01c80639507d39a1161005b5780639507d39a14610188578063c051a3a6146101e0578063c34052e01461028d578063e0886f90146102d157610088565b80631f7b6d321461008d5780632f30c6f6146100ab5780634cc82215146100f9578063871394d914610127575b600080fd5b610095610330565b6040518082815260200191505060405180910390f35b6100f7600480360360408110156100c157600080fd5b8101908080359060200190929190803573ffffffffffffffffffffffffffffffffffffffff169060200190929190505050610341565b005b6101256004803603602081101561010f57600080fd5b8101908080359060200190929190505050610399565b005b6101536004803603602081101561013d57600080fd5b81019080803590602001909291905050506103ee565b6040518083151581526020018273ffffffffffffffffffffffffffffffffffffffff1681526020019250505060405180910390f35b6101b46004803603602081101561019e57600080fd5b810190808035906020019092919050505061040e565b604051808273ffffffffffffffffffffffffffffffffffffffff16815260200191505060405180910390f35b610261600480360360408110156101f657600080fd5b81019080803590602001909291908035906020019064010000000081111561021d57600080fd5b82018360208201111561022f57600080fd5b8035906020019184600183028401116401000000008311171561025157600080fd5b909192939192939050505061042b565b604051808273ffffffffffffffffffffffffffffffffffffffff16815260200191505060405180910390f35b6102b9600480360360208110156102a357600080fd5b8101908080359060200190929190505050610490565b60405180821515815260200191505060405180910390f35b6102fd600480360360208110156102e757600080fd5b81019080803590602001909291905050506104ad565b604051808381526020018273ffffffffffffffffffffffffffffffffffffffff1681526020019250505060405180910390f35b600061033c60006104cd565b905090565b6000610359838360006104e29092919063ffffffff16565b90507fed9840e0775590557ad736875d96c95cf1458b766335f74339951a32c82a9e338160405180821515815260200191505060405180910390a1505050565b60006103af82600061051790919063ffffffff16565b90507fed9840e0775590557ad736875d96c95cf1458b766335f74339951a32c82a9e338160405180821515815260200191505060405180910390a15050565b60008061040583600061053190919063ffffffff16565b91509150915091565b600061042482600061055d90919063ffffffff16565b9050919050565b60006104878484848080601f016020809104026020016040519081016040528093929190818152602001838380828437600081840152601f19601f82011690508083019250505050505050600061057a9092919063ffffffff16565b90509392505050565b60006104a682600061059990919063ffffffff16565b9050919050565b6000806104c48360006105b390919063ffffffff16565b91509150915091565b60006104db826000016105df565b9050919050565b600061050e846000018460001b8473ffffffffffffffffffffffffffffffffffffffff1660001b6105f0565b90509392505050565b6000610529836000018360001b6106cc565b905092915050565b600080600080610547866000018660001b6107e5565b91509150818160001c9350935050509250929050565b600061056f836000018360001b610851565b60001c905092915050565b600061058d846000018460001b84610910565b60001c90509392505050565b60006105ab836000018360001b610a06565b905092915050565b6000806000806105c68660000186610a29565b915091508160001c8160001c9350935050509250929050565b600081600001805490509050919050565b6000808460010160008581526020019081526020016000205490506000811415610697578460000160405180604001604052808681526020018581525090806001815401808255809150506001900390600052602060002090600202016000909190919091506000820151816000015560208201518160010155505084600001805490508560010160008681526020019081526020016000208190555060019150506106c5565b828560000160018303815481106106aa57fe5b90600052602060002090600202016001018190555060009150505b9392505050565b600080836001016000848152602001908152602001600020549050600081146107d9576000600182039050600060018660000180549050039050600086600001828154811061071757fe5b906000526020600020906002020190508087600001848154811061073757fe5b906000526020600020906002020160008201548160000155600182015481600101559050506001830187600101600083600001548152602001908152602001600020819055508660000180548061078a57fe5b60019003818190600052602060002090600202016000808201600090556001820160009055505090558660010160008781526020019081526020016000206000905560019450505050506107df565b60009150505b92915050565b6000806000846001016000858152602001908152602001600020549050600081141561081e576000808060001b9050925092505061084a565b600185600001600183038154811061083257fe5b90600052602060002090600202016001015492509250505b9250929050565b60008083600101600084815260200190815260200160002054905060008114156108e3576040517f08c379a000000000000000000000000000000000000000000000000000000000815260040180806020018281038252601e8152602001807f456e756d657261626c654d61703a206e6f6e6578697374656e74206b6579000081525060200191505060405180910390fd5b8360000160018203815481106108f557fe5b90600052602060002090600202016001015491505092915050565b600080846001016000858152602001908152602001600020549050600081141583906109d7576040517f08c379a00000000000000000000000000000000000000000000000000000000081526004018080602001828103825283818151815260200191508051906020019080838360005b8381101561099c578082015181840152602081019050610981565b50505050905090810190601f1680156109c95780820380516001836020036101000a031916815260200191505b509250505060405180910390fd5b508460000160018203815481106109ea57fe5b9060005260206000209060020201600101549150509392505050565b600080836001016000848152602001908152602001600020541415905092915050565b60008082846000018054905011610a8b576040517f08c379a0000000000000000000000000000000000000000000000000000000008152600401808060200182810382526022815260200180610ac36022913960400191505060405180910390fd5b6000846000018481548110610a9c57fe5b90600052602060002090600202019050806000015481600101549250925050925092905056fe456e756d657261626c654d61703a20696e646578206f7574206f6620626f756e6473a264697066735822122084ed84b63d228120699924bd05670c4dece47fbc36eb4600bdd2de5f77f9d35664736f6c63430007040033",
  "linkReferences": {},
  "deployedLinkReferences": {}
}