{
  "_format": "hh-sol-artifact-1",
  "contractName": "SafeMathMock",
  "sourceName": "contracts/mocks/SafeMathMock.sol",
  "abi": [
    {
      "inputs": [],
      "name": "addMemoryCheck",
      "outputs": [
        {
          "internalType": "uint256",
          "name": "mem",
          "type": "uint256"
        }
      ],
      "stateMutability": "pure",
      "type": "function"
    },
    {
      "inputs": [],
      "name": "divMemoryCheck",
      "outputs": [
        {
          "internalType": "uint256",
          "name": "mem",
          "type": "uint256"
        }
      ],
      "stateMutability": "pure",
      "type": "function"
    },
    {
      "inputs": [
        {
          "internalType": "uint256",
          "name": "a",
          "type": "uint256"
        },
        {
          "internalType": "uint256",
          "name": "b",
          "type": "uint256"
        },
        {
          "internalType": "string",
          "name": "errorMessage",
          "type": "string"
        }
      ],
      "name": "divWithMessage",
      "outputs": [
        {
          "internalType": "uint256",
          "name": "",
          "type": "uint256"
        }
      ],
      "stateMutability": "pure",
      "type": "function"
    },
    {
      "inputs": [
        {
          "internalType": "uint256",
          "name": "a",
          "type": "uint256"
        },
        {
          "internalType": "uint256",
          "name": "b",
          "type": "uint256"
        }
      ],
      "name": "doAdd",
      "outputs": [
        {
          "internalType": "uint256",
          "name": "",
          "type": "uint256"
        }
      ],
      "stateMutability": "pure",
      "type": "function"
    },
    {
      "inputs": [
        {
          "internalType": "uint256",
          "name": "a",
          "type": "uint256"
        },
        {
          "internalType": "uint256",
          "name": "b",
          "type": "uint256"
        }
      ],
      "name": "doDiv",
      "outputs": [
        {
          "internalType": "uint256",
          "name": "",
          "type": "uint256"
        }
      ],
      "stateMutability": "pure",
      "type": "function"
    },
    {
      "inputs": [
        {
          "internalType": "uint256",
          "name": "a",
          "type": "uint256"
        },
        {
          "internalType": "uint256",
          "name": "b",
          "type": "uint256"
        }
      ],
      "name": "doMod",
      "outputs": [
        {
          "internalType": "uint256",
          "name": "",
          "type": "uint256"
        }
      ],
      "stateMutability": "pure",
      "type": "function"
    },
    {
      "inputs": [
        {
          "internalType": "uint256",
          "name": "a",
          "type": "uint256"
        },
        {
          "internalType": "uint256",
          "name": "b",
          "type": "uint256"
        }
      ],
      "name": "doMul",
      "outputs": [
        {
          "internalType": "uint256",
          "name": "",
          "type": "uint256"
        }
      ],
      "stateMutability": "pure",
      "type": "function"
    },
    {
      "inputs": [
        {
          "internalType": "uint256",
          "name": "a",
          "type": "uint256"
        },
        {
          "internalType": "uint256",
          "name": "b",
          "type": "uint256"
        }
      ],
      "name": "doSub",
      "outputs": [
        {
          "internalType": "uint256",
          "name": "",
          "type": "uint256"
        }
      ],
      "stateMutability": "pure",
      "type": "function"
    },
    {
      "inputs": [],
      "name": "modMemoryCheck",
      "outputs": [
        {
          "internalType": "uint256",
          "name": "mem",
          "type": "uint256"
        }
      ],
      "stateMutability": "pure",
      "type": "function"
    },
    {
      "inputs": [
        {
          "internalType": "uint256",
          "name": "a",
          "type": "uint256"
        },
        {
          "internalType": "uint256",
          "name": "b",
          "type": "uint256"
        },
        {
          "internalType": "string",
          "name": "errorMessage",
          "type": "string"
        }
      ],
      "name": "modWithMessage",
      "outputs": [
        {
          "internalType": "uint256",
          "name": "",
          "type": "uint256"
        }
      ],
      "stateMutability": "pure",
      "type": "function"
    },
    {
      "inputs": [],
      "name": "mulMemoryCheck",
      "outputs": [
        {
          "internalType": "uint256",
          "name": "mem",
          "type": "uint256"
        }
      ],
      "stateMutability": "pure",
      "type": "function"
    },
    {
      "inputs": [],
      "name": "subMemoryCheck",
      "outputs": [
        {
          "internalType": "uint256",
          "name": "mem",
          "type": "uint256"
        }
      ],
      "stateMutability": "pure",
      "type": "function"
    },
    {
      "inputs": [
        {
          "internalType": "uint256",
          "name": "a",
          "type": "uint256"
        },
        {
          "internalType": "uint256",
          "name": "b",
          "type": "uint256"
        },
        {
          "internalType": "string",
          "name": "errorMessage",
          "type": "string"
        }
      ],
      "name": "subWithMessage",
      "outputs": [
        {
          "internalType": "uint256",
          "name": "",
          "type": "uint256"
        }
      ],
      "stateMutability": "pure",
      "type": "function"
    },
    {
      "inputs": [
        {
          "internalType": "uint256",
          "name": "a",
          "type": "uint256"
        },
        {
          "internalType": "uint256",
          "name": "b",
          "type": "uint256"
        }
      ],
      "name": "tryAdd",
      "outputs": [
        {
          "internalType": "bool",
          "name": "flag",
          "type": "bool"
        },
        {
          "internalType": "uint256",
          "name": "value",
          "type": "uint256"
        }
      ],
      "stateMutability": "pure",
      "type": "function"
    },
    {
      "inputs": [
        {
          "internalType": "uint256",
          "name": "a",
          "type": "uint256"
        },
        {
          "internalType": "uint256",
          "name": "b",
          "type": "uint256"
        }
      ],
      "name": "tryDiv",
      "outputs": [
        {
          "internalType": "bool",
          "name": "flag",
          "type": "bool"
        },
        {
          "internalType": "uint256",
          "name": "value",
          "type": "uint256"
        }
      ],
      "stateMutability": "pure",
      "type": "function"
    },
    {
      "inputs": [
        {
          "internalType": "uint256",
          "name": "a",
          "type": "uint256"
        },
        {
          "internalType": "uint256",
          "name": "b",
          "type": "uint256"
        }
      ],
      "name": "tryMod",
      "outputs": [
        {
          "internalType": "bool",
          "name": "flag",
          "type": "bool"
        },
        {
          "internalType": "uint256",
          "name": "value",
          "type": "uint256"
        }
      ],
      "stateMutability": "pure",
      "type": "function"
    },
    {
      "inputs": [
        {
          "internalType": "uint256",
          "name": "a",
          "type": "uint256"
        },
        {
          "internalType": "uint256",
          "name": "b",
          "type": "uint256"
        }
      ],
      "name": "tryMul",
      "outputs": [
        {
          "internalType": "bool",
          "name": "flag",
          "type": "bool"
        },
        {
          "internalType": "uint256",
          "name": "value",
          "type": "uint256"
        }
      ],
      "stateMutability": "pure",
      "type": "function"
    },
    {
      "inputs": [
        {
          "internalType": "uint256",
          "name": "a",
          "type": "uint256"
        },
        {
          "internalType": "uint256",
          "name": "b",
          "type": "uint256"
        }
      ],
      "name": "trySub",
      "outputs": [
        {
          "internalType": "bool",
          "name": "flag",
          "type": "bool"
        },
        {
          "internalType": "uint256",
          "name": "value",
          "type": "uint256"
        }
      ],
      "stateMutability": "pure",
      "type": "function"
    }
  ],
  "bytecode": "0x608060405234801561001057600080fd5b50610ff7806100206000396000f3fe608060405234801561001057600080fd5b50600436106101165760003560e01c80639f5cec89116100a2578063dcc721d211610071578063dcc721d21461065f578063fb119198146106ab578063fb24c860146106f7578063fb999ded14610715578063fc0ce5031461073357610116565b80639f5cec8914610426578063a155bd6214610509578063a29962b1146105ec578063c460ae041461064157610116565b80636f91e802116100e95780636f91e802146102f4578063736ecb18146103125780637e86d25c14610367578063869f602f14610385578063884557bf146103d157610116565b80633449b5fb1461011b57806338dc0867146101fe5780636281efa4146102535780636c7ac637146102a8575b600080fd5b6101e86004803603606081101561013157600080fd5b8101908080359060200190929190803590602001909291908035906020019064010000000081111561016257600080fd5b82018360208201111561017457600080fd5b8035906020019184600183028401116401000000008311171561019657600080fd5b91908080601f016020809104026020016040519081016040528093929190818152602001838380828437600081840152601f19601f82011690508083019250505050505050919291929050505061077f565b6040518082815260200191505060405180910390f35b6102346004803603604081101561021457600080fd5b810190808035906020019092919080359060200190929190505050610795565b6040518083151581526020018281526020019250505060405180910390f35b6102896004803603604081101561026957600080fd5b8101908080359060200190929190803590602001909291905050506107ad565b6040518083151581526020018281526020019250505060405180910390f35b6102de600480360360408110156102be57600080fd5b8101908080359060200190929190803590602001909291905050506107c5565b6040518082815260200191505060405180910390f35b6102fc6107d9565b6040518082815260200191505060405180910390f35b6103486004803603604081101561032857600080fd5b810190808035906020019092919080359060200190929190505050610813565b6040518083151581526020018281526020019250505060405180910390f35b61036f61082b565b6040518082815260200191505060405180910390f35b6103bb6004803603604081101561039b57600080fd5b810190808035906020019092919080359060200190929190505050610865565b6040518082815260200191505060405180910390f35b610407600480360360408110156103e757600080fd5b810190808035906020019092919080359060200190929190505050610879565b6040518083151581526020018281526020019250505060405180910390f35b6104f36004803603606081101561043c57600080fd5b8101908080359060200190929190803590602001909291908035906020019064010000000081111561046d57600080fd5b82018360208201111561047f57600080fd5b803590602001918460018302840111640100000000831117156104a157600080fd5b91908080601f016020809104026020016040519081016040528093929190818152602001838380828437600081840152601f19601f820116905080830192505050505050509192919290505050610891565b6040518082815260200191505060405180910390f35b6105d66004803603606081101561051f57600080fd5b8101908080359060200190929190803590602001909291908035906020019064010000000081111561055057600080fd5b82018360208201111561056257600080fd5b8035906020019184600183028401116401000000008311171561058457600080fd5b91908080601f016020809104026020016040519081016040528093929190818152602001838380828437600081840152601f19601f8201169050808301925050505050505091929192905050506108a7565b6040518082815260200191505060405180910390f35b6106226004803603604081101561060257600080fd5b8101908080359060200190929190803590602001909291905050506108bd565b6040518083151581526020018281526020019250505060405180910390f35b6106496108d5565b6040518082815260200191505060405180910390f35b6106956004803603604081101561067557600080fd5b81019080803590602001909291908035906020019092919050505061090f565b6040518082815260200191505060405180910390f35b6106e1600480360360408110156106c157600080fd5b810190808035906020019092919080359060200190929190505050610923565b6040518082815260200191505060405180910390f35b6106ff610937565b6040518082815260200191505060405180910390f35b61071d610971565b6040518082815260200191505060405180910390f35b6107696004803603604081101561074957600080fd5b8101908080359060200190929190803590602001909291905050506109ab565b6040518082815260200191505060405180910390f35b600061078c8484846109bf565b90509392505050565b6000806107a28484610a7f565b915091509250929050565b6000806107ba8484610aaf565b915091509250929050565b60006107d18383610afc565b905092915050565b60008060209050604051915060005b81811015610807576107fb600180610b7f565b508060010190506107e8565b50816040510391505090565b6000806108208484610c08565b915091509250929050565b60008060209050604051915060005b818110156108595761084d600180610c38565b5080600101905061083a565b50816040510391505090565b60006108718383610b7f565b905092915050565b6000806108868484610cbe565b915091509250929050565b600061089e848484610ced565b90509392505050565b60006108b4848484610da7565b90509392505050565b6000806108ca8484610e67565b915091509250929050565b60008060209050604051915060005b81811015610903576108f7600180610e8f565b508060010190506108e4565b50816040510391505090565b600061091b8383610f18565b905092915050565b600061092f8383610c38565b905092915050565b60008060209050604051915060005b8181101561096557610959600180610f18565b50806001019050610946565b50816040510391505090565b60008060209050604051915060005b8181101561099f57610993600180610afc565b50806001019050610980565b50816040510391505090565b60006109b78383610e8f565b905092915050565b60008083118290610a6b576040517f08c379a00000000000000000000000000000000000000000000000000000000081526004018080602001828103825283818151815260200191508051906020019080838360005b83811015610a30578082015181840152602081019050610a15565b50505050905090810190601f168015610a5d5780820380516001836020036101000a031916815260200191505b509250505060405180910390fd5b50828481610a7557fe5b0490509392505050565b6000806000831415610a975760008091509150610aa8565b6001838581610aa257fe5b06915091505b9250929050565b6000806000841415610ac8576001600091509150610af5565b6000838502905083858281610ad957fe5b0414610aec576000809250925050610af5565b60018192509250505b9250929050565b600082821115610b74576040517f08c379a000000000000000000000000000000000000000000000000000000000815260040180806020018281038252601e8152602001807f536166654d6174683a207375627472616374696f6e206f766572666c6f77000081525060200191505060405180910390fd5b818303905092915050565b6000808211610bf6576040517f08c379a00000000000000000000000000000000000000000000000000000000081526004018080602001828103825260188152602001807f536166654d6174683a206d6f64756c6f206279207a65726f000000000000000081525060200191505060405180910390fd5b818381610bff57fe5b06905092915050565b6000806000831415610c205760008091509150610c31565b6001838581610c2b57fe5b04915091505b9250929050565b600080831415610c4b5760009050610cb8565b6000828402905082848281610c5c57fe5b0414610cb3576040517f08c379a0000000000000000000000000000000000000000000000000000000008152600401808060200182810382526021815260200180610fa16021913960400191505060405180910390fd5b809150505b92915050565b6000806000838501905084811015610cdd576000809250925050610ce6565b60018192509250505b9250929050565b6000838311158290610d9a576040517f08c379a00000000000000000000000000000000000000000000000000000000081526004018080602001828103825283818151815260200191508051906020019080838360005b83811015610d5f578082015181840152602081019050610d44565b50505050905090810190601f168015610d8c5780820380516001836020036101000a031916815260200191505b509250505060405180910390fd5b5082840390509392505050565b60008083118290610e53576040517f08c379a00000000000000000000000000000000000000000000000000000000081526004018080602001828103825283818151815260200191508051906020019080838360005b83811015610e18578082015181840152602081019050610dfd565b50505050905090810190601f168015610e455780820380516001836020036101000a031916815260200191505b509250505060405180910390fd5b50828481610e5d57fe5b0690509392505050565b60008083831115610e7e5760008091509150610e88565b6001838503915091505b9250929050565b6000808211610f06576040517f08c379a000000000000000000000000000000000000000000000000000000000815260040180806020018281038252601a8152602001807f536166654d6174683a206469766973696f6e206279207a65726f00000000000081525060200191505060405180910390fd5b818381610f0f57fe5b04905092915050565b600080828401905083811015610f96576040517f08c379a000000000000000000000000000000000000000000000000000000000815260040180806020018281038252601b8152602001807f536166654d6174683a206164646974696f6e206f766572666c6f77000000000081525060200191505060405180910390fd5b809150509291505056fe536166654d6174683a206d756c7469706c69636174696f6e206f766572666c6f77a2646970667358221220afb84f2595d360bfc11ad54455f559d8fc5f0db1e6c98e68cd9017fff57f71a264736f6c63430007040033",
  "linkReferences": {},
  "deployedLinkReferences": {}
}