{
  "_format": "hh-sol-artifact-1",
  "contractName": "ReentrancyAttack",
  "sourceName": "contracts/mocks/ReentrancyAttack.sol",
  "abi": [
    {
      "inputs": [
        {
          "internalType": "bytes4",
          "name": "data",
          "type": "bytes4"
        }
      ],
      "name": "callSender",
      "outputs": [],
      "stateMutability": "nonpayable",
      "type": "function"
    }
  ],
  "bytecode": "0x608060405234801561001057600080fd5b50610254806100206000396000f3fe608060405234801561001057600080fd5b506004361061002b5760003560e01c80630a2df1ed14610030575b600080fd5b61007b6004803603602081101561004657600080fd5b8101908080357bffffffffffffffffffffffffffffffffffffffffffffffffffffffff1916906020019092919050505061007d565b005b6000610087610216565b73ffffffffffffffffffffffffffffffffffffffff1682604051602401604051602081830303815290604052907bffffffffffffffffffffffffffffffffffffffffffffffffffffffff19166020820180517bffffffffffffffffffffffffffffffffffffffffffffffffffffffff83818316178352505050506040518082805190602001908083835b602083106101345780518252602082019150602081019050602083039250610111565b6001836020036101000a0380198251168184511680821785525050505050509050019150506000604051808303816000865af19150503d8060008114610196576040519150601f19603f3d011682016040523d82523d6000602084013e61019b565b606091505b5050905080610212576040517f08c379a000000000000000000000000000000000000000000000000000000000815260040180806020018281038252601d8152602001807f5265656e7472616e637941747461636b3a206661696c65642063616c6c00000081525060200191505060405180910390fd5b5050565b60003390509056fea2646970667358221220dbdf8fbda411a2c8302611a5132de1a546f12f70a3c0e114cd0133a50d37e18264736f6c63430007040033",
  "linkReferences": {},
  "deployedLinkReferences": {}
}