{
  "_format": "hh-sol-artifact-1",
  "contractName": "ERC20PermitMock",
  "sourceName": "contracts/mocks/ERC20PermitMock.sol",
  "abi": [
    {
      "inputs": [
        {
          "internalType": "string",
          "name": "name",
          "type": "string"
        },
        {
          "internalType": "string",
          "name": "symbol",
          "type": "string"
        },
        {
          "internalType": "address",
          "name": "initialAccount",
          "type": "address"
        },
        {
          "internalType": "uint256",
          "name": "initialBalance",
          "type": "uint256"
        }
      ],
      "stateMutability": "payable",
      "type": "constructor"
    },
    {
      "anonymous": false,
      "inputs": [
        {
          "indexed": true,
          "internalType": "address",
          "name": "owner",
          "type": "address"
        },
        {
          "indexed": true,
          "internalType": "address",
          "name": "spender",
          "type": "address"
        },
        {
          "indexed": false,
          "internalType": "uint256",
          "name": "value",
          "type": "uint256"
        }
      ],
      "name": "Approval",
      "type": "event"
    },
    {
      "anonymous": false,
      "inputs": [
        {
          "indexed": true,
          "internalType": "address",
          "name": "from",
          "type": "address"
        },
        {
          "indexed": true,
          "internalType": "address",
          "name": "to",
          "type": "address"
        },
        {
          "indexed": false,
          "internalType": "uint256",
          "name": "value",
          "type": "uint256"
        }
      ],
      "name": "Transfer",
      "type": "event"
    },
    {
      "inputs": [],
      "name": "DOMAIN_SEPARATOR",
      "outputs": [
        {
          "internalType": "bytes32",
          "name": "",
          "type": "bytes32"
        }
      ],
      "stateMutability": "view",
      "type": "function"
    },
    {
      "inputs": [
        {
          "internalType": "address",
          "name": "owner",
          "type": "address"
        },
        {
          "internalType": "address",
          "name": "spender",
          "type": "address"
        }
      ],
      "name": "allowance",
      "outputs": [
        {
          "internalType": "uint256",
          "name": "",
          "type": "uint256"
        }
      ],
      "stateMutability": "view",
      "type": "function"
    },
    {
      "inputs": [
        {
          "internalType": "address",
          "name": "spender",
          "type": "address"
        },
        {
          "internalType": "uint256",
          "name": "amount",
          "type": "uint256"
        }
      ],
      "name": "approve",
      "outputs": [
        {
          "internalType": "bool",
          "name": "",
          "type": "bool"
        }
      ],
      "stateMutability": "nonpayable",
      "type": "function"
    },
    {
      "inputs": [
        {
          "internalType": "address",
          "name": "account",
          "type": "address"
        }
      ],
      "name": "balanceOf",
      "outputs": [
        {
          "internalType": "uint256",
          "name": "",
          "type": "uint256"
        }
      ],
      "stateMutability": "view",
      "type": "function"
    },
    {
      "inputs": [],
      "name": "decimals",
      "outputs": [
        {
          "internalType": "uint8",
          "name": "",
          "type": "uint8"
        }
      ],
      "stateMutability": "view",
      "type": "function"
    },
    {
      "inputs": [
        {
          "internalType": "address",
          "name": "spender",
          "type": "address"
        },
        {
          "internalType": "uint256",
          "name": "subtractedValue",
          "type": "uint256"
        }
      ],
      "name": "decreaseAllowance",
      "outputs": [
        {
          "internalType": "bool",
          "name": "",
          "type": "bool"
        }
      ],
      "stateMutability": "nonpayable",
      "type": "function"
    },
    {
      "inputs": [],
      "name": "getChainId",
      "outputs": [
        {
          "internalType": "uint256",
          "name": "chainId",
          "type": "uint256"
        }
      ],
      "stateMutability": "view",
      "type": "function"
    },
    {
      "inputs": [
        {
          "internalType": "address",
          "name": "spender",
          "type": "address"
        },
        {
          "internalType": "uint256",
          "name": "addedValue",
          "type": "uint256"
        }
      ],
      "name": "increaseAllowance",
      "outputs": [
        {
          "internalType": "bool",
          "name": "",
          "type": "bool"
        }
      ],
      "stateMutability": "nonpayable",
      "type": "function"
    },
    {
      "inputs": [],
      "name": "name",
      "outputs": [
        {
          "internalType": "string",
          "name": "",
          "type": "string"
        }
      ],
      "stateMutability": "view",
      "type": "function"
    },
    {
      "inputs": [
        {
          "internalType": "address",
          "name": "owner",
          "type": "address"
        }
      ],
      "name": "nonces",
      "outputs": [
        {
          "internalType": "uint256",
          "name": "",
          "type": "uint256"
        }
      ],
      "stateMutability": "view",
      "type": "function"
    },
    {
      "inputs": [
        {
          "internalType": "address",
          "name": "owner",
          "type": "address"
        },
        {
          "internalType": "address",
          "name": "spender",
          "type": "address"
        },
        {
          "internalType": "uint256",
          "name": "value",
          "type": "uint256"
        },
        {
          "internalType": "uint256",
          "name": "deadline",
          "type": "uint256"
        },
        {
          "internalType": "uint8",
          "name": "v",
          "type": "uint8"
        },
        {
          "internalType": "bytes32",
          "name": "r",
          "type": "bytes32"
        },
        {
          "internalType": "bytes32",
          "name": "s",
          "type": "bytes32"
        }
      ],
      "name": "permit",
      "outputs": [],
      "stateMutability": "nonpayable",
      "type": "function"
    },
    {
      "inputs": [],
      "name": "symbol",
      "outputs": [
        {
          "internalType": "string",
          "name": "",
          "type": "string"
        }
      ],
      "stateMutability": "view",
      "type": "function"
    },
    {
      "inputs": [],
      "name": "totalSupply",
      "outputs": [
        {
          "internalType": "uint256",
          "name": "",
          "type": "uint256"
        }
      ],
      "stateMutability": "view",
      "type": "function"
    },
    {
      "inputs": [
        {
          "internalType": "address",
          "name": "recipient",
          "type": "address"
        },
        {
          "internalType": "uint256",
          "name": "amount",
          "type": "uint256"
        }
      ],
      "name": "transfer",
      "outputs": [
        {
          "internalType": "bool",
          "name": "",
          "type": "bool"
        }
      ],
      "stateMutability": "nonpayable",
      "type": "function"
    },
    {
      "inputs": [
        {
          "internalType": "address",
          "name": "sender",
          "type": "address"
        },
        {
          "internalType": "address",
          "name": "recipient",
          "type": "address"
        },
        {
          "internalType": "uint256",
          "name": "amount",
          "type": "uint256"
        }
      ],
      "name": "transferFrom",
      "outputs": [
        {
          "internalType": "bool",
          "name": "",
          "type": "bool"
        }
      ],
      "stateMutability": "nonpayable",
      "type": "function"
    }
  ],
  "bytecode": "0x6101406040527f6e71edae12b1b97f4d1f60370fef10105fa2faae0126114a169c64845d6126c9610120908152506040516200204938038062002049833981810160405260808110156200005257600080fd5b81019080805160405193929190846401000000008211156200007357600080fd5b838201915060208201858111156200008a57600080fd5b8251866001820283011164010000000082111715620000a857600080fd5b8083526020830192505050908051906020019080838360005b83811015620000de578082015181840152602081019050620000c1565b50505050905090810190601f1680156200010c5780820380516001836020036101000a031916815260200191505b50604052602001805160405193929190846401000000008211156200013057600080fd5b838201915060208201858111156200014757600080fd5b82518660018202830111640100000000821117156200016557600080fd5b8083526020830192505050908051906020019080838360005b838110156200019b5780820151818401526020810190506200017e565b50505050905090810190601f168015620001c95780820380516001836020036101000a031916815260200191505b50604052602001805190602001909291908051906020019092919050505083806040518060400160405280600181526020017f3100000000000000000000000000000000000000000000000000000000000000815250868681600390805190602001906200023992919062000605565b5080600490805190602001906200025292919062000605565b506012600560006101000a81548160ff021916908360ff160217905550505060008280519060200120905060008280519060200120905060007f8b73c3c69bb8fe3d512ecc4cf759cc79239f7b179b0ffacaa9a75d522b39400f90508260c081815250508160e08181525050620002ce6200031a60201b60201c565b60a08181525050620002e88184846200032260201b60201c565b608081815250508061010081815250505050505050506200031082826200039960201b60201c565b50505050620006bb565b600046905090565b6000838383620003376200031a60201b60201c565b30604051602001808681526020018581526020018481526020018381526020018273ffffffffffffffffffffffffffffffffffffffff168152602001955050505050506040516020818303038152906040528051906020012090509392505050565b600073ffffffffffffffffffffffffffffffffffffffff168273ffffffffffffffffffffffffffffffffffffffff1614156200043d576040517f08c379a000000000000000000000000000000000000000000000000000000000815260040180806020018281038252601f8152602001807f45524332303a206d696e7420746f20746865207a65726f20616464726573730081525060200191505060405180910390fd5b62000451600083836200057760201b60201c565b6200046d816002546200057c60201b62000df71790919060201c565b600281905550620004cb816000808573ffffffffffffffffffffffffffffffffffffffff1673ffffffffffffffffffffffffffffffffffffffff168152602001908152602001600020546200057c60201b62000df71790919060201c565b6000808473ffffffffffffffffffffffffffffffffffffffff1673ffffffffffffffffffffffffffffffffffffffff168152602001908152602001600020819055508173ffffffffffffffffffffffffffffffffffffffff16600073ffffffffffffffffffffffffffffffffffffffff167fddf252ad1be2c89b69c2b068fc378daa952ba7f163c4a11628f55a4df523b3ef836040518082815260200191505060405180910390a35050565b505050565b600080828401905083811015620005fb576040517f08c379a000000000000000000000000000000000000000000000000000000000815260040180806020018281038252601b8152602001807f536166654d6174683a206164646974696f6e206f766572666c6f77000000000081525060200191505060405180910390fd5b8091505092915050565b828054600181600116156101000203166002900490600052602060002090601f0160209004810192826200063d576000855562000689565b82601f106200065857805160ff191683800117855562000689565b8280016001018555821562000689579182015b82811115620006885782518255916020019190600101906200066b565b5b5090506200069891906200069c565b5090565b5b80821115620006b75760008160009055506001016200069d565b5090565b60805160a05160c05160e05161010051610120516119446200070560003980610b735250806114575250806114995250806114785250806113fd52508061142c52506119446000f3fe608060405234801561001057600080fd5b50600436106100f55760003560e01c80633950935111610097578063a457c2d711610066578063a457c2d714610477578063a9059cbb146104db578063d505accf1461053f578063dd62ed3e146105d8576100f5565b806339509351146102e057806370a08231146103445780637ecebe001461039c57806395d89b41146103f4576100f5565b806323b872dd116100d357806323b872dd146101ff578063313ce567146102835780633408e470146102a45780633644e515146102c2576100f5565b806306fdde03146100fa578063095ea7b31461017d57806318160ddd146101e1575b600080fd5b610102610650565b6040518080602001828103825283818151815260200191508051906020019080838360005b83811015610142578082015181840152602081019050610127565b50505050905090810190601f16801561016f5780820380516001836020036101000a031916815260200191505b509250505060405180910390f35b6101c96004803603604081101561019357600080fd5b81019080803573ffffffffffffffffffffffffffffffffffffffff169060200190929190803590602001909291905050506106f2565b60405180821515815260200191505060405180910390f35b6101e9610710565b6040518082815260200191505060405180910390f35b61026b6004803603606081101561021557600080fd5b81019080803573ffffffffffffffffffffffffffffffffffffffff169060200190929190803573ffffffffffffffffffffffffffffffffffffffff1690602001909291908035906020019092919050505061071a565b60405180821515815260200191505060405180910390f35b61028b6107f3565b604051808260ff16815260200191505060405180910390f35b6102ac61080a565b6040518082815260200191505060405180910390f35b6102ca610812565b6040518082815260200191505060405180910390f35b61032c600480360360408110156102f657600080fd5b81019080803573ffffffffffffffffffffffffffffffffffffffff16906020019092919080359060200190929190505050610821565b60405180821515815260200191505060405180910390f35b6103866004803603602081101561035a57600080fd5b81019080803573ffffffffffffffffffffffffffffffffffffffff1690602001909291905050506108d4565b6040518082815260200191505060405180910390f35b6103de600480360360208110156103b257600080fd5b81019080803573ffffffffffffffffffffffffffffffffffffffff16906020019092919050505061091c565b6040518082815260200191505060405180910390f35b6103fc61096c565b6040518080602001828103825283818151815260200191508051906020019080838360005b8381101561043c578082015181840152602081019050610421565b50505050905090810190601f1680156104695780820380516001836020036101000a031916815260200191505b509250505060405180910390f35b6104c36004803603604081101561048d57600080fd5b81019080803573ffffffffffffffffffffffffffffffffffffffff16906020019092919080359060200190929190505050610a0e565b60405180821515815260200191505060405180910390f35b610527600480360360408110156104f157600080fd5b81019080803573ffffffffffffffffffffffffffffffffffffffff16906020019092919080359060200190929190505050610adb565b60405180821515815260200191505060405180910390f35b6105d6600480360360e081101561055557600080fd5b81019080803573ffffffffffffffffffffffffffffffffffffffff169060200190929190803573ffffffffffffffffffffffffffffffffffffffff1690602001909291908035906020019092919080359060200190929190803560ff1690602001909291908035906020019092919080359060200190929190505050610af9565b005b61063a600480360360408110156105ee57600080fd5b81019080803573ffffffffffffffffffffffffffffffffffffffff169060200190929190803573ffffffffffffffffffffffffffffffffffffffff169060200190929190505050610d70565b6040518082815260200191505060405180910390f35b606060038054600181600116156101000203166002900480601f0160208091040260200160405190810160405280929190818152602001828054600181600116156101000203166002900480156106e85780601f106106bd576101008083540402835291602001916106e8565b820191906000526020600020905b8154815290600101906020018083116106cb57829003601f168201915b5050505050905090565b60006107066106ff610e7f565b8484610e87565b6001905092915050565b6000600254905090565b600061072784848461107e565b6107e884610733610e7f565b6107e38560405180606001604052806028815260200161187960289139600160008b73ffffffffffffffffffffffffffffffffffffffff1673ffffffffffffffffffffffffffffffffffffffff1681526020019081526020016000206000610799610e7f565b73ffffffffffffffffffffffffffffffffffffffff1673ffffffffffffffffffffffffffffffffffffffff1681526020019081526020016000205461133f9092919063ffffffff16565b610e87565b600190509392505050565b6000600560009054906101000a900460ff16905090565b600046905090565b600061081c6113f9565b905090565b60006108ca61082e610e7f565b846108c5856001600061083f610e7f565b73ffffffffffffffffffffffffffffffffffffffff1673ffffffffffffffffffffffffffffffffffffffff16815260200190815260200160002060008973ffffffffffffffffffffffffffffffffffffffff1673ffffffffffffffffffffffffffffffffffffffff16815260200190815260200160002054610df790919063ffffffff16565b610e87565b6001905092915050565b60008060008373ffffffffffffffffffffffffffffffffffffffff1673ffffffffffffffffffffffffffffffffffffffff168152602001908152602001600020549050919050565b6000610965600660008473ffffffffffffffffffffffffffffffffffffffff1673ffffffffffffffffffffffffffffffffffffffff1681526020019081526020016000206114c3565b9050919050565b606060048054600181600116156101000203166002900480601f016020809104026020016040519081016040528092919081815260200182805460018160011615610100020316600290048015610a045780601f106109d957610100808354040283529160200191610a04565b820191906000526020600020905b8154815290600101906020018083116109e757829003601f168201915b5050505050905090565b6000610ad1610a1b610e7f565b84610acc856040518060600160405280602581526020016118ea6025913960016000610a45610e7f565b73ffffffffffffffffffffffffffffffffffffffff1673ffffffffffffffffffffffffffffffffffffffff16815260200190815260200160002060008a73ffffffffffffffffffffffffffffffffffffffff1673ffffffffffffffffffffffffffffffffffffffff1681526020019081526020016000205461133f9092919063ffffffff16565b610e87565b6001905092915050565b6000610aef610ae8610e7f565b848461107e565b6001905092915050565b83421115610b6f576040517f08c379a000000000000000000000000000000000000000000000000000000000815260040180806020018281038252601d8152602001807f45524332305065726d69743a206578706972656420646561646c696e6500000081525060200191505060405180910390fd5b60007f0000000000000000000000000000000000000000000000000000000000000000888888610bdc600660008e73ffffffffffffffffffffffffffffffffffffffff1673ffffffffffffffffffffffffffffffffffffffff1681526020019081526020016000206114c3565b89604051602001808781526020018673ffffffffffffffffffffffffffffffffffffffff1681526020018573ffffffffffffffffffffffffffffffffffffffff16815260200184815260200183815260200182815260200196505050505050506040516020818303038152906040528051906020012090506000610c5f826114d1565b90506000610c6f82878787611538565b90508973ffffffffffffffffffffffffffffffffffffffff168173ffffffffffffffffffffffffffffffffffffffff1614610d12576040517f08c379a000000000000000000000000000000000000000000000000000000000815260040180806020018281038252601e8152602001807f45524332305065726d69743a20696e76616c6964207369676e6174757265000081525060200191505060405180910390fd5b610d59600660008c73ffffffffffffffffffffffffffffffffffffffff1673ffffffffffffffffffffffffffffffffffffffff168152602001908152602001600020611737565b610d648a8a8a610e87565b50505050505050505050565b6000600160008473ffffffffffffffffffffffffffffffffffffffff1673ffffffffffffffffffffffffffffffffffffffff16815260200190815260200160002060008373ffffffffffffffffffffffffffffffffffffffff1673ffffffffffffffffffffffffffffffffffffffff16815260200190815260200160002054905092915050565b600080828401905083811015610e75576040517f08c379a000000000000000000000000000000000000000000000000000000000815260040180806020018281038252601b8152602001807f536166654d6174683a206164646974696f6e206f766572666c6f77000000000081525060200191505060405180910390fd5b8091505092915050565b600033905090565b600073ffffffffffffffffffffffffffffffffffffffff168373ffffffffffffffffffffffffffffffffffffffff161415610f0d576040517f08c379a00000000000000000000000000000000000000000000000000000000081526004018080602001828103825260248152602001806118c66024913960400191505060405180910390fd5b600073ffffffffffffffffffffffffffffffffffffffff168273ffffffffffffffffffffffffffffffffffffffff161415610f93576040517f08c379a00000000000000000000000000000000000000000000000000000000081526004018080602001828103825260228152602001806117ed6022913960400191505060405180910390fd5b80600160008573ffffffffffffffffffffffffffffffffffffffff1673ffffffffffffffffffffffffffffffffffffffff16815260200190815260200160002060008473ffffffffffffffffffffffffffffffffffffffff1673ffffffffffffffffffffffffffffffffffffffff168152602001908152602001600020819055508173ffffffffffffffffffffffffffffffffffffffff168373ffffffffffffffffffffffffffffffffffffffff167f8c5be1e5ebec7d5bd14f71427d1e84f3dd0314c0f7b2291e5b200ac8c7c3b925836040518082815260200191505060405180910390a3505050565b600073ffffffffffffffffffffffffffffffffffffffff168373ffffffffffffffffffffffffffffffffffffffff161415611104576040517f08c379a00000000000000000000000000000000000000000000000000000000081526004018080602001828103825260258152602001806118a16025913960400191505060405180910390fd5b600073ffffffffffffffffffffffffffffffffffffffff168273ffffffffffffffffffffffffffffffffffffffff16141561118a576040517f08c379a00000000000000000000000000000000000000000000000000000000081526004018080602001828103825260238152602001806117ca6023913960400191505060405180910390fd5b61119583838361174d565b6112008160405180606001604052806026815260200161180f602691396000808773ffffffffffffffffffffffffffffffffffffffff1673ffffffffffffffffffffffffffffffffffffffff1681526020019081526020016000205461133f9092919063ffffffff16565b6000808573ffffffffffffffffffffffffffffffffffffffff1673ffffffffffffffffffffffffffffffffffffffff16815260200190815260200160002081905550611293816000808573ffffffffffffffffffffffffffffffffffffffff1673ffffffffffffffffffffffffffffffffffffffff16815260200190815260200160002054610df790919063ffffffff16565b6000808473ffffffffffffffffffffffffffffffffffffffff1673ffffffffffffffffffffffffffffffffffffffff168152602001908152602001600020819055508173ffffffffffffffffffffffffffffffffffffffff168373ffffffffffffffffffffffffffffffffffffffff167fddf252ad1be2c89b69c2b068fc378daa952ba7f163c4a11628f55a4df523b3ef836040518082815260200191505060405180910390a3505050565b60008383111582906113ec576040517f08c379a00000000000000000000000000000000000000000000000000000000081526004018080602001828103825283818151815260200191508051906020019080838360005b838110156113b1578082015181840152602081019050611396565b50505050905090810190601f1680156113de5780820380516001836020036101000a031916815260200191505b509250505060405180910390fd5b5082840390509392505050565b60007f0000000000000000000000000000000000000000000000000000000000000000611424611752565b1415611452577f000000000000000000000000000000000000000000000000000000000000000090506114c0565b6114bd7f00000000000000000000000000000000000000000000000000000000000000007f00000000000000000000000000000000000000000000000000000000000000007f000000000000000000000000000000000000000000000000000000000000000061175a565b90505b90565b600081600001549050919050565b60006114db6113f9565b8260405160200180807f190100000000000000000000000000000000000000000000000000000000000081525060020183815260200182815260200192505050604051602081830303815290604052805190602001209050919050565b60007f7fffffffffffffffffffffffffffffff5d576e7357a4501ddfe92f46681b20a08260001c11156115b6576040517f08c379a00000000000000000000000000000000000000000000000000000000081526004018080602001828103825260228152602001806118356022913960400191505060405180910390fd5b601b8460ff1614806115cb5750601c8460ff16145b611620576040517f08c379a00000000000000000000000000000000000000000000000000000000081526004018080602001828103825260228152602001806118576022913960400191505060405180910390fd5b600060018686868660405160008152602001604052604051808581526020018460ff1681526020018381526020018281526020019450505050506020604051602081039080840390855afa15801561167c573d6000803e3d6000fd5b505050602060405103519050600073ffffffffffffffffffffffffffffffffffffffff168173ffffffffffffffffffffffffffffffffffffffff16141561172b576040517f08c379a00000000000000000000000000000000000000000000000000000000081526004018080602001828103825260188152602001807f45434453413a20696e76616c6964207369676e6174757265000000000000000081525060200191505060405180910390fd5b80915050949350505050565b6001816000016000828254019250508190555050565b505050565b600046905090565b6000838383611767611752565b30604051602001808681526020018581526020018481526020018381526020018273ffffffffffffffffffffffffffffffffffffffff16815260200195505050505050604051602081830303815290604052805190602001209050939250505056fe45524332303a207472616e7366657220746f20746865207a65726f206164647265737345524332303a20617070726f766520746f20746865207a65726f206164647265737345524332303a207472616e7366657220616d6f756e7420657863656564732062616c616e636545434453413a20696e76616c6964207369676e6174757265202773272076616c756545434453413a20696e76616c6964207369676e6174757265202776272076616c756545524332303a207472616e7366657220616d6f756e74206578636565647320616c6c6f77616e636545524332303a207472616e736665722066726f6d20746865207a65726f206164647265737345524332303a20617070726f76652066726f6d20746865207a65726f206164647265737345524332303a2064656372656173656420616c6c6f77616e63652062656c6f77207a65726fa26469706673582212202d1d1705a8fb7a87c91989938ee8c3bff5f9cce53da2c7dcfa74b9b32a19248b64736f6c63430007040033",
  "linkReferences": {},
  "deployedLinkReferences": {}
}