{
  "_format": "hh-sol-artifact-1",
  "contractName": "ArraysImpl",
  "sourceName": "contracts/mocks/ArraysImpl.sol",
  "abi": [
    {
      "inputs": [
        {
          "internalType": "uint256[]",
          "name": "array",
          "type": "uint256[]"
        }
      ],
      "stateMutability": "nonpayable",
      "type": "constructor"
    },
    {
      "inputs": [
        {
          "internalType": "uint256",
          "name": "element",
          "type": "uint256"
        }
      ],
      "name": "findUpperBound",
      "outputs": [
        {
          "internalType": "uint256",
          "name": "",
          "type": "uint256"
        }
      ],
      "stateMutability": "view",
      "type": "function"
    }
  ],
  "bytecode": "0x608060405234801561001057600080fd5b506040516103183803806103188339818101604052602081101561003357600080fd5b810190808051604051939291908464010000000082111561005357600080fd5b8382019150602082018581111561006957600080fd5b825186602082028301116401000000008211171561008657600080fd5b8083526020830192505050908051906020019060200280838360005b838110156100bd5780820151818401526020810190506100a2565b5050505090500160405250505080600090805190602001906100e09291906100e7565b5050610151565b828054828255906000526020600020908101928215610123579160200282015b82811115610122578251825591602001919060010190610107565b5b5090506101309190610134565b5090565b5b8082111561014d576000816000905550600101610135565b5090565b6101b8806101606000396000f3fe608060405234801561001057600080fd5b506004361061002b5760003560e01c806333e3a58a14610030575b600080fd5b61005c6004803603602081101561004657600080fd5b8101908080359060200190929190505050610072565b6040518082815260200191505060405180910390f35b600061008882600061008f90919063ffffffff16565b9050919050565b600080838054905014156100a6576000905061013a565b600080848054905090505b808210156100fa5760006100c58383610140565b9050848682815481106100d457fe5b906000526020600020015411156100ed578091506100f4565b6001810192505b506100b1565b60008211801561012257508385600184038154811061011557fe5b9060005260206000200154145b1561013457600182039250505061013a565b81925050505b92915050565b6000600280838161014d57fe5b066002858161015857fe5b06018161016157fe5b046002838161016c57fe5b046002858161017757fe5b04010190509291505056fea264697066735822122074d94e3dbf69da7dd6669fce0495c826f56bbbd7de53610149ecbdb9842d989164736f6c63430007040033",
  "linkReferences": {},
  "deployedLinkReferences": {}
}