{
  "_format": "hh-sol-artifact-1",
  "contractName": "InitializableMock",
  "sourceName": "contracts/mocks/InitializableMock.sol",
  "abi": [
    {
      "inputs": [],
      "name": "fail",
      "outputs": [],
      "stateMutability": "pure",
      "type": "function"
    },
    {
      "inputs": [],
      "name": "initialize",
      "outputs": [],
      "stateMutability": "nonpayable",
      "type": "function"
    },
    {
      "inputs": [],
      "name": "initializeNested",
      "outputs": [],
      "stateMutability": "nonpayable",
      "type": "function"
    },
    {
      "inputs": [
        {
          "internalType": "uint256",
          "name": "_x",
          "type": "uint256"
        }
      ],
      "name": "initializeWithX",
      "outputs": [],
      "stateMutability": "payable",
      "type": "function"
    },
    {
      "inputs": [],
      "name": "initializerRan",
      "outputs": [
        {
          "internalType": "bool",
          "name": "",
          "type": "bool"
        }
      ],
      "stateMutability": "view",
      "type": "function"
    },
    {
      "inputs": [
        {
          "internalType": "uint256",
          "name": "_x",
          "type": "uint256"
        }
      ],
      "name": "nonInitializable",
      "outputs": [],
      "stateMutability": "payable",
      "type": "function"
    },
    {
      "inputs": [],
      "name": "x",
      "outputs": [
        {
          "internalType": "uint256",
          "name": "",
          "type": "uint256"
        }
      ],
      "stateMutability": "view",
      "type": "function"
    }
  ],
  "bytecode": "0x608060405234801561001057600080fd5b506105b3806100206000396000f3fe60806040526004361061006f5760003560e01c8063a9cc47181161004e578063a9cc4718146100e4578063c3b8ef2a146100fb578063cb3a528d14610128578063e955c9ec1461013f5761006f565b806218eaa8146100745780630c55699c146100a25780638129fc1c146100cd575b600080fd5b6100a06004803603602081101561008a57600080fd5b810190808035906020019092919050505061016d565b005b3480156100ae57600080fd5b506100b7610273565b6040518082815260200191505060405180910390f35b3480156100d957600080fd5b506100e2610279565b005b3480156100f057600080fd5b506100f9610392565b005b34801561010757600080fd5b50610110610408565b60405180821515815260200191505060405180910390f35b34801561013457600080fd5b5061013d61041b565b005b61016b6004803603602081101561015557600080fd5b8101908080359060200190929190505050610521565b005b600060019054906101000a900460ff168061018c575061018b61052b565b5b806101a2575060008054906101000a900460ff16155b6101f7576040517f08c379a000000000000000000000000000000000000000000000000000000000815260040180806020018281038252602e815260200180610550602e913960400191505060405180910390fd5b60008060019054906101000a900460ff161590508015610247576001600060016101000a81548160ff02191690831515021790555060016000806101000a81548160ff0219169083151502179055505b81600181905550801561026f5760008060016101000a81548160ff0219169083151502179055505b5050565b60015481565b600060019054906101000a900460ff1680610298575061029761052b565b5b806102ae575060008054906101000a900460ff16155b610303576040517f08c379a000000000000000000000000000000000000000000000000000000000815260040180806020018281038252602e815260200180610550602e913960400191505060405180910390fd5b60008060019054906101000a900460ff161590508015610353576001600060016101000a81548160ff02191690831515021790555060016000806101000a81548160ff0219169083151502179055505b6001600060026101000a81548160ff021916908315150217905550801561038f5760008060016101000a81548160ff0219169083151502179055505b50565b6000610406576040517f08c379a00000000000000000000000000000000000000000000000000000000081526004018080602001828103825260208152602001807f496e697469616c697a61626c654d6f636b20666f72636564206661696c75726581525060200191505060405180910390fd5b565b600060029054906101000a900460ff1681565b600060019054906101000a900460ff168061043a575061043961052b565b5b80610450575060008054906101000a900460ff16155b6104a5576040517f08c379a000000000000000000000000000000000000000000000000000000000815260040180806020018281038252602e815260200180610550602e913960400191505060405180910390fd5b60008060019054906101000a900460ff1615905080156104f5576001600060016101000a81548160ff02191690831515021790555060016000806101000a81548160ff0219169083151502179055505b6104fd610279565b801561051e5760008060016101000a81548160ff0219169083151502179055505b50565b8060018190555050565b60006105363061053c565b15905090565b600080823b90506000811191505091905056fe496e697469616c697a61626c653a20636f6e747261637420697320616c726561647920696e697469616c697a6564a26469706673582212206fa333e58ab588c3f5d8fc36350cc6f1d4d1923c7441fe7500eb63d3082ccb7364736f6c63430007040033",
  "linkReferences": {},
  "deployedLinkReferences": {}
}