{
  "_format": "hh-sol-artifact-1",
  "contractName": "Implementation3",
  "sourceName": "contracts/mocks/RegressionImplementation.sol",
  "abi": [
    {
      "inputs": [
        {
          "internalType": "uint256",
          "name": "_number",
          "type": "uint256"
        }
      ],
      "name": "getValue",
      "outputs": [
        {
          "internalType": "uint256",
          "name": "",
          "type": "uint256"
        }
      ],
      "stateMutability": "view",
      "type": "function"
    },
    {
      "inputs": [],
      "name": "initialize",
      "outputs": [],
      "stateMutability": "nonpayable",
      "type": "function"
    },
    {
      "inputs": [
        {
          "internalType": "uint256",
          "name": "_number",
          "type": "uint256"
        }
      ],
      "name": "setValue",
      "outputs": [],
      "stateMutability": "nonpayable",
      "type": "function"
    }
  ],
  "bytecode": "0x608060405234801561001057600080fd5b5061025e806100206000396000f3fe608060405234801561001057600080fd5b50600436106100415760003560e01c80630ff4c9161461004657806355241077146100885780638129fc1c146100b6575b600080fd5b6100726004803603602081101561005c57600080fd5b81019080803590602001909291905050506100c0565b6040518082815260200191505060405180910390f35b6100b46004803603602081101561009e57600080fd5b81019080803590602001909291905050506100ce565b005b6100be6100d8565b005b600081600154019050919050565b8060018190555050565b600060019054906101000a900460ff16806100f757506100f66101d6565b5b8061010d575060008054906101000a900460ff16155b610162576040517f08c379a000000000000000000000000000000000000000000000000000000000815260040180806020018281038252602e8152602001806101fb602e913960400191505060405180910390fd5b60008060019054906101000a900460ff1615905080156101b2576001600060016101000a81548160ff02191690831515021790555060016000806101000a81548160ff0219169083151502179055505b80156101d35760008060016101000a81548160ff0219169083151502179055505b50565b60006101e1306101e7565b15905090565b600080823b90506000811191505091905056fe496e697469616c697a61626c653a20636f6e747261637420697320616c726561647920696e697469616c697a6564a2646970667358221220fff713dced2026f68e4c9186af2293b885efd6246fdb0bed8e0ca6783e5de1f964736f6c63430007040033",
  "linkReferences": {},
  "deployedLinkReferences": {}
}