{
  "_format": "hh-sol-artifact-1",
  "contractName": "Implementation4",
  "sourceName": "contracts/mocks/RegressionImplementation.sol",
  "abi": [
    {
      "stateMutability": "nonpayable",
      "type": "fallback"
    },
    {
      "inputs": [],
      "name": "getValue",
      "outputs": [
        {
          "internalType": "uint256",
          "name": "",
          "type": "uint256"
        }
      ],
      "stateMutability": "view",
      "type": "function"
    },
    {
      "inputs": [],
      "name": "initialize",
      "outputs": [],
      "stateMutability": "nonpayable",
      "type": "function"
    },
    {
      "inputs": [
        {
          "internalType": "uint256",
          "name": "_number",
          "type": "uint256"
        }
      ],
      "name": "setValue",
      "outputs": [],
      "stateMutability": "nonpayable",
      "type": "function"
    }
  ],
  "bytecode": "0x608060405234801561001057600080fd5b5061023f806100206000396000f3fe608060405234801561001057600080fd5b50600436106100455760003560e01c8063209652551461004f578063552410771461006d5780638129fc1c1461009b57610046565b5b60018081905550005b6100576100a5565b6040518082815260200191505060405180910390f35b6100996004803603602081101561008357600080fd5b81019080803590602001909291905050506100af565b005b6100a36100b9565b005b6000600154905090565b8060018190555050565b600060019054906101000a900460ff16806100d857506100d76101b7565b5b806100ee575060008054906101000a900460ff16155b610143576040517f08c379a000000000000000000000000000000000000000000000000000000000815260040180806020018281038252602e8152602001806101dc602e913960400191505060405180910390fd5b60008060019054906101000a900460ff161590508015610193576001600060016101000a81548160ff02191690831515021790555060016000806101000a81548160ff0219169083151502179055505b80156101b45760008060016101000a81548160ff0219169083151502179055505b50565b60006101c2306101c8565b15905090565b600080823b90506000811191505091905056fe496e697469616c697a61626c653a20636f6e747261637420697320616c726561647920696e697469616c697a6564a26469706673582212205ffb06f835e48fce3e60cbacde66275599ffb51e4b3ce9b4faf49869042fc30064736f6c63430007040033",
  "linkReferences": {},
  "deployedLinkReferences": {}
}