{
  "_format": "hh-sol-artifact-1",
  "contractName": "SampleHuman",
  "sourceName": "contracts/mocks/MultipleInheritanceInitializableMocks.sol",
  "abi": [
    {
      "inputs": [],
      "name": "initialize",
      "outputs": [],
      "stateMutability": "nonpayable",
      "type": "function"
    },
    {
      "inputs": [],
      "name": "isHuman",
      "outputs": [
        {
          "internalType": "bool",
          "name": "",
          "type": "bool"
        }
      ],
      "stateMutability": "view",
      "type": "function"
    }
  ],
  "bytecode": "0x608060405234801561001057600080fd5b50610219806100206000396000f3fe608060405234801561001057600080fd5b50600436106100365760003560e01c80634a6c9db61461003b5780638129fc1c1461005b575b600080fd5b610043610065565b60405180821515815260200191505060405180910390f35b610063610078565b005b600060029054906101000a900460ff1681565b600060019054906101000a900460ff16806100975750610096610191565b5b806100ad575060008054906101000a900460ff16155b610102576040517f08c379a000000000000000000000000000000000000000000000000000000000815260040180806020018281038252602e8152602001806101b6602e913960400191505060405180910390fd5b60008060019054906101000a900460ff161590508015610152576001600060016101000a81548160ff02191690831515021790555060016000806101000a81548160ff0219169083151502179055505b6001600060026101000a81548160ff021916908315150217905550801561018e5760008060016101000a81548160ff0219169083151502179055505b50565b600061019c306101a2565b15905090565b600080823b90506000811191505091905056fe496e697469616c697a61626c653a20636f6e747261637420697320616c726561647920696e697469616c697a6564a26469706673582212208fd4ff04e8923d91fa27d354c283c59b1d3bd0dc422da329d50a8a395b4b59c564736f6c63430007040033",
  "linkReferences": {},
  "deployedLinkReferences": {}
}