{
  "_format": "hh-sol-artifact-1",
  "contractName": "SampleGramps",
  "sourceName": "contracts/mocks/MultipleInheritanceInitializableMocks.sol",
  "abi": [
    {
      "inputs": [],
      "name": "gramps",
      "outputs": [
        {
          "internalType": "string",
          "name": "",
          "type": "string"
        }
      ],
      "stateMutability": "view",
      "type": "function"
    },
    {
      "inputs": [],
      "name": "initialize",
      "outputs": [],
      "stateMutability": "nonpayable",
      "type": "function"
    },
    {
      "inputs": [
        {
          "internalType": "string",
          "name": "value",
          "type": "string"
        }
      ],
      "name": "initialize",
      "outputs": [],
      "stateMutability": "nonpayable",
      "type": "function"
    },
    {
      "inputs": [],
      "name": "isHuman",
      "outputs": [
        {
          "internalType": "bool",
          "name": "",
          "type": "bool"
        }
      ],
      "stateMutability": "view",
      "type": "function"
    }
  ],
  "bytecode": "0x608060405234801561001057600080fd5b506105d4806100206000396000f3fe608060405234801561001057600080fd5b506004361061004c5760003560e01c80634a6c9db6146100515780638129fc1c14610071578063f62d18881461007b578063fa39851f14610136575b600080fd5b6100596101b9565b60405180821515815260200191505060405180910390f35b6100796101cc565b005b6101346004803603602081101561009157600080fd5b81019080803590602001906401000000008111156100ae57600080fd5b8201836020820111156100c057600080fd5b803590602001918460018302840111640100000000831117156100e257600080fd5b91908080601f016020809104026020016040519081016040528093929190818152602001838380828437600081840152601f19601f8201169050808301925050505050505091929192905050506102e5565b005b61013e610403565b6040518080602001828103825283818151815260200191508051906020019080838360005b8381101561017e578082015181840152602081019050610163565b50505050905090810190601f1680156101ab5780820380516001836020036101000a031916815260200191505b509250505060405180910390f35b600060029054906101000a900460ff1681565b600060019054906101000a900460ff16806101eb57506101ea6104a1565b5b80610201575060008054906101000a900460ff16155b610256576040517f08c379a000000000000000000000000000000000000000000000000000000000815260040180806020018281038252602e815260200180610571602e913960400191505060405180910390fd5b60008060019054906101000a900460ff1615905080156102a6576001600060016101000a81548160ff02191690831515021790555060016000806101000a81548160ff0219169083151502179055505b6001600060026101000a81548160ff02191690831515021790555080156102e25760008060016101000a81548160ff0219169083151502179055505b50565b600060019054906101000a900460ff168061030457506103036104a1565b5b8061031a575060008054906101000a900460ff16155b61036f576040517f08c379a000000000000000000000000000000000000000000000000000000000815260040180806020018281038252602e815260200180610571602e913960400191505060405180910390fd5b60008060019054906101000a900460ff1615905080156103bf576001600060016101000a81548160ff02191690831515021790555060016000806101000a81548160ff0219169083151502179055505b6103c76101cc565b81600190805190602001906103dd9291906104c5565b5080156103ff5760008060016101000a81548160ff0219169083151502179055505b5050565b60018054600181600116156101000203166002900480601f0160208091040260200160405190810160405280929190818152602001828054600181600116156101000203166002900480156104995780601f1061046e57610100808354040283529160200191610499565b820191906000526020600020905b81548152906001019060200180831161047c57829003601f168201915b505050505081565b60006104ac306104b2565b15905090565b600080823b905060008111915050919050565b828054600181600116156101000203166002900490600052602060002090601f0160209004810192826104fb5760008555610542565b82601f1061051457805160ff1916838001178555610542565b82800160010185558215610542579182015b82811115610541578251825591602001919060010190610526565b5b50905061054f9190610553565b5090565b5b8082111561056c576000816000905550600101610554565b509056fe496e697469616c697a61626c653a20636f6e747261637420697320616c726561647920696e697469616c697a6564a2646970667358221220765ab2c40d5d9c96206f3fa1d822651cbb8aed6d33abf239f653b06a2252d96064736f6c63430007040033",
  "linkReferences": {},
  "deployedLinkReferences": {}
}