{
  "_format": "hh-sol-artifact-1",
  "contractName": "EtherReceiverMock",
  "sourceName": "contracts/mocks/EtherReceiverMock.sol",
  "abi": [
    {
      "inputs": [
        {
          "internalType": "bool",
          "name": "acceptEther",
          "type": "bool"
        }
      ],
      "name": "setAcceptEther",
      "outputs": [],
      "stateMutability": "nonpayable",
      "type": "function"
    },
    {
      "stateMutability": "payable",
      "type": "receive"
    }
  ],
  "bytecode": "0x608060405234801561001057600080fd5b5060cb8061001f6000396000f3fe608060405260043610601f5760003560e01c80634fea120c14604057603b565b36603b5760008054906101000a900460ff16603957600080fd5b005b600080fd5b348015604b57600080fd5b50607760048036036020811015606057600080fd5b810190808035151590602001909291905050506079565b005b806000806101000a81548160ff0219169083151502179055505056fea26469706673582212203745d4695aeb57930821cc410c97f945bb66ee4c8c23611070f93267478c99b564736f6c63430007040033",
  "linkReferences": {},
  "deployedLinkReferences": {}
}