{
  "_format": "hh-sol-artifact-1",
  "contractName": "ERC165CheckerMock",
  "sourceName": "contracts/mocks/ERC165CheckerMock.sol",
  "abi": [
    {
      "inputs": [
        {
          "internalType": "address",
          "name": "account",
          "type": "address"
        },
        {
          "internalType": "bytes4[]",
          "name": "interfaceIds",
          "type": "bytes4[]"
        }
      ],
      "name": "getSupportedInterfaces",
      "outputs": [
        {
          "internalType": "bool[]",
          "name": "",
          "type": "bool[]"
        }
      ],
      "stateMutability": "view",
      "type": "function"
    },
    {
      "inputs": [
        {
          "internalType": "address",
          "name": "account",
          "type": "address"
        },
        {
          "internalType": "bytes4[]",
          "name": "interfaceIds",
          "type": "bytes4[]"
        }
      ],
      "name": "supportsAllInterfaces",
      "outputs": [
        {
          "internalType": "bool",
          "name": "",
          "type": "bool"
        }
      ],
      "stateMutability": "view",
      "type": "function"
    },
    {
      "inputs": [
        {
          "internalType": "address",
          "name": "account",
          "type": "address"
        }
      ],
      "name": "supportsERC165",
      "outputs": [
        {
          "internalType": "bool",
          "name": "",
          "type": "bool"
        }
      ],
      "stateMutability": "view",
      "type": "function"
    },
    {
      "inputs": [
        {
          "internalType": "address",
          "name": "account",
          "type": "address"
        },
        {
          "internalType": "bytes4",
          "name": "interfaceId",
          "type": "bytes4"
        }
      ],
      "name": "supportsInterface",
      "outputs": [
        {
          "internalType": "bool",
          "name": "",
          "type": "bool"
        }
      ],
      "stateMutability": "view",
      "type": "function"
    }
  ],
  "bytecode": "0x608060405234801561001057600080fd5b5061078b806100206000396000f3fe608060405234801561001057600080fd5b506004361061004c5760003560e01c80634b9dd9041461005157806377e6b4cc1461013f578063c398a9251461026c578063d9057007146102c6575b600080fd5b6101276004803603604081101561006757600080fd5b81019080803573ffffffffffffffffffffffffffffffffffffffff169060200190929190803590602001906401000000008111156100a457600080fd5b8201836020820111156100b657600080fd5b803590602001918460208302840111640100000000831117156100d857600080fd5b919080806020026020016040519081016040528093929190818152602001838360200280828437600081840152601f19601f820116905080830192505050505050509192919290505050610349565b60405180821515815260200191505060405180910390f35b6102156004803603604081101561015557600080fd5b81019080803573ffffffffffffffffffffffffffffffffffffffff1690602001909291908035906020019064010000000081111561019257600080fd5b8201836020820111156101a457600080fd5b803590602001918460208302840111640100000000831117156101c657600080fd5b919080806020026020016040519081016040528093929190818152602001838360200280828437600081840152601f19601f82011690508083019250505050505050919291929050505061037c565b6040518080602001828103825283818151815260200191508051906020019060200280838360005b8381101561025857808201518184015260208101905061023d565b505050509050019250505060405180910390f35b6102ae6004803603602081101561028257600080fd5b81019080803573ffffffffffffffffffffffffffffffffffffffff1690602001909291905050506103af565b60405180821515815260200191505060405180910390f35b610331600480360360408110156102dc57600080fd5b81019080803573ffffffffffffffffffffffffffffffffffffffff16906020019092919080357bffffffffffffffffffffffffffffffffffffffffffffffffffffffff191690602001909291905050506103d7565b60405180821515815260200191505060405180910390f35b6000610374828473ffffffffffffffffffffffffffffffffffffffff1661040a90919063ffffffff16565b905092915050565b60606103a7828473ffffffffffffffffffffffffffffffffffffffff1661047290919063ffffffff16565b905092915050565b60006103d08273ffffffffffffffffffffffffffffffffffffffff1661052d565b9050919050565b6000610402828473ffffffffffffffffffffffffffffffffffffffff1661056190919063ffffffff16565b905092915050565b60006104158361052d565b610422576000905061046c565b60005b82518110156104665761044b8484838151811061043e57fe5b6020026020010151610586565b61045957600091505061046c565b8080600101915050610425565b50600190505b92915050565b606080825167ffffffffffffffff8111801561048d57600080fd5b506040519080825280602002602001820160405280156104bc5781602001602082028036833780820191505090505b5090506104c88461052d565b156105235760005b8351811015610521576104f6858583815181106104e957fe5b6020026020010151610586565b82828151811061050257fe5b60200260200101901515908115158152505080806001019150506104d0565b505b8091505092915050565b6000610540826301ffc9a760e01b610586565b801561055a57506105588263ffffffff60e01b610586565b155b9050919050565b600061056c8361052d565b801561057e575061057d8383610586565b5b905092915050565b600080600061059585856105ad565b915091508180156105a35750805b9250505092915050565b60008060606301ffc9a760e01b8460405160240180827bffffffffffffffffffffffffffffffffffffffffffffffffffffffff19168152602001915050604051602081830303815290604052907bffffffffffffffffffffffffffffffffffffffffffffffffffffffff19166020820180517bffffffffffffffffffffffffffffffffffffffffffffffffffffffff83818316178352505050509050600060608673ffffffffffffffffffffffffffffffffffffffff16617530846040518082805190602001908083835b6020831061069b5780518252602082019150602081019050602083039250610678565b6001836020036101000a0380198251168184511680821785525050505050509050019150506000604051808303818686fa925050503d80600081146106fc576040519150601f19603f3d011682016040523d82523d6000602084013e610701565b606091505b509150915060208151101561071f576000809450945050505061074e565b8181806020019051602081101561073557600080fd5b8101908080519060200190929190505050945094505050505b925092905056fea264697066735822122099b58bae058b1fe08a5b0910801c290aa66b116cdb6db1b7785d61962e326c4664736f6c63430007040033",
  "linkReferences": {},
  "deployedLinkReferences": {}
}