{
  "_format": "hh-sol-artifact-1",
  "contractName": "MathMock",
  "sourceName": "contracts/mocks/MathMock.sol",
  "abi": [
    {
      "inputs": [
        {
          "internalType": "uint256",
          "name": "a",
          "type": "uint256"
        },
        {
          "internalType": "uint256",
          "name": "b",
          "type": "uint256"
        }
      ],
      "name": "average",
      "outputs": [
        {
          "internalType": "uint256",
          "name": "",
          "type": "uint256"
        }
      ],
      "stateMutability": "pure",
      "type": "function"
    },
    {
      "inputs": [
        {
          "internalType": "uint256",
          "name": "a",
          "type": "uint256"
        },
        {
          "internalType": "uint256",
          "name": "b",
          "type": "uint256"
        }
      ],
      "name": "max",
      "outputs": [
        {
          "internalType": "uint256",
          "name": "",
          "type": "uint256"
        }
      ],
      "stateMutability": "pure",
      "type": "function"
    },
    {
      "inputs": [
        {
          "internalType": "uint256",
          "name": "a",
          "type": "uint256"
        },
        {
          "internalType": "uint256",
          "name": "b",
          "type": "uint256"
        }
      ],
      "name": "min",
      "outputs": [
        {
          "internalType": "uint256",
          "name": "",
          "type": "uint256"
        }
      ],
      "stateMutability": "pure",
      "type": "function"
    }
  ],
  "bytecode": "0x608060405234801561001057600080fd5b50610211806100206000396000f3fe608060405234801561001057600080fd5b50600436106100415760003560e01c80632b7423ab146100465780636d5433e6146100925780637ae2b5c7146100de575b600080fd5b61007c6004803603604081101561005c57600080fd5b81019080803590602001909291908035906020019092919050505061012a565b6040518082815260200191505060405180910390f35b6100c8600480360360408110156100a857600080fd5b81019080803590602001909291908035906020019092919050505061013e565b6040518082815260200191505060405180910390f35b610114600480360360408110156100f457600080fd5b810190808035906020019092919080359060200190929190505050610152565b6040518082815260200191505060405180910390f35b60006101368383610166565b905092915050565b600061014a83836101a8565b905092915050565b600061015e83836101c2565b905092915050565b6000600280838161017357fe5b066002858161017e57fe5b06018161018757fe5b046002838161019257fe5b046002858161019d57fe5b040101905092915050565b6000818310156101b857816101ba565b825b905092915050565b60008183106101d157816101d3565b825b90509291505056fea26469706673582212201727998998573c3fd46102ae3d97d02c13c8d8e59d624211029e51bb51344dc364736f6c63430007040033",
  "linkReferences": {},
  "deployedLinkReferences": {}
}